:1000000018380020D1290000CD290000CD2900009A
:1000100000000000000000000000000000000000E0
:10002000000000000000000000000000CD290000DA
:100030000000000000000000CD290000CD290000D4
:10004000CD290000CD290000E10C0000790400005A
:10005000CD290000CD290000CD290000CD290000C8
:100060006D1100007D1100008D1100009D11000038
:10007000AD110000BD110000CD290000CD29000008
:10008000CD2900008925000099250000A925000040
:10009000B9250000C9250000CD290000CD290000A8
:1000A000CD290000CD290000CD290000CD29000078
:1000B0000000000010B5064C2378002B07D1054B3B
:1000C000002B02D0044800E000BF0123237010BDC4
:1000D000E001002000000000A8080100084B10B556
:1000E000002B03D00749084800E000BF0748036819
:1000F000002B00D110BD064B002BFBD09847F9E731
:1001000000000000E4010020A8080100A808010088
:100110000000000070B50020084B98470500084C0F
:10012000FA218900A047074B186007492800A0471B
:10013000064B18600522064B1A6070BDB9220000FC
:100140003DBD00000000002040420F0004000020E0
:1001500010E000E030B5084B1C68084A00258021FB
:100160004902013807D3002CFBD054609560136816
:100170000B42FCD0F5E730BD0400002010E000E0A9
:1001800030B5084B1C68084A002580214902013817
:1001900007D3002CFBD05460956013680B42FCD051
:1001A000F5E730BD0000002010E000E00C4B1B68BC
:1001B000002B06D1EFF31083002B07D00022094B50
:1001C0001A70074A136801331360704772B6BFF3A1
:1001D0005F8F0022044B1A700132024B1A70F0E755
:1001E000FC0100200002002008000020084B1A68D3
:1001F000013A1A601B68002B09D1064B1B78002BB3
:1002000005D00122044B1A70BFF35F8F62B67047AE
:10021000FC0100200002002008000020F0B5C646C6
:1002200000B582B001AC0125657000239846A3702B
:10023000257021001320124EB047124F80231B035C
:100240007B61257021001220B0478023DB027B6197
:10025000257021000D20B04780239B017B61257014
:1002600021000920B04780239B007B614346237017
:10027000657021001C20B04702B004BC9046F0BD60
:10028000D5090000002800400123037000234370BB
:100290008370C37003710F2242718371C371037243
:1002A00070470268136802210B43136070470323F1
:1002B000026853710268D3710268136802218B438C
:1002C0001360704770B504000D00D378037121608E
:1002D000537843711379837113789B029178C90223
:1002E0000B43517809020B43D17889000B431179F4
:1002F00049010B4391798903D07940030143107A76
:100300000003014352791204F020000302400A4323
:1003100013431E002B689B0701D42E6070BD200084
:10032000034B98472E602000024B9847F6E7C046E3
:10033000AF020000A302000070B5054CE569802300
:100340009B012B43E36101230B60024B984770BD77
:1003500000040040C502000070B54379012B05D0B0
:10036000002B10D0022B0DD1082500E0062500231C
:1003700010C99A1C92000668B44662445460013366
:10038000AB42F5D370BD0425F1E7000010B50023A2
:10039000026813720F4B426813400F4A93420AD00F
:1003A0000379032B0ED00C001034036804C99A6340
:1003B0008C42FAD110BD03680A689A6303684A68E0
:1003C0009A63F7E78379023B012BECD803680A684C
:1003D0009A63EFE7FF00FF000300010000230268BB
:1003E0001372104B426813400F4A93420AD00379AC
:1003F000032B0ED00A00103203689B6B08C18A429F
:10040000FAD1704703689B6B0B6003689B6B4B6072
:10041000F7E78379023B012BECD803689B6B0B60F9
:10042000EFE7C046FF00FF00030001001723002A8A
:1004300001D0180070478B00064A9B58002B03D050
:10044000834205D01D23F4E7890088500023F0E79C
:100450000023EEE7A80700201723002901D0180089
:10046000704700221F2800D8024A012383401361ED
:100470000023F4E70024004070B50022104B1A70EE
:10048000002310491F25104E0D4C0AE00D4908E0CD
:1004900023780133DBB223700F2B10D800211F2BE0
:1004A000F4D9280018400122824048691042EFD058
:1004B0004A619B009B59002BEAD09847E8E770BD42
:1004C000A407002000240040A8070020064A137853
:1004D00002210B431370012053681942FCD1536869
:1004E0001842F9D17047C04600240040064A1378EC
:1004F00002218B431370012053681942FCD15368C9
:100500001842F9D17047C0460024004010B5124A85
:10051000516980239B000B435361104A13780121DA
:100520000B4313700131012053681942FCD1536809
:100530001842F9D1094A137810210B431370084B64
:1005400019004031002204C38B42FCD10822054B24
:100550001A60054B984710BD00040040002400407D
:10056000A807002000E100E0CD04000000230360A4
:1005700043600122027283720132C2724372704779
:10058000F0B583B005000C001C4B984701A900236F
:100590004B70CB7023790B70237A8B702078184BBB
:1005A000984700211F2D00D8164907222A409200A3
:1005B000E77AA37A002B01D008231F43EB089B00A6
:1005C000CB18D8690F269640B04397403A000243B3
:1005D000DA61637A002B0BD18A690123AB40DB43DC
:1005E0001B041B0C13408B61074B984703B0F0BDF5
:1005F0008A690123AB4013438B61F5E7ED040000EA
:100600009124000000240040CD04000010B51E4AD3
:10061000936904210B4393611C4B2022FF321A8300
:100620001A7D0523D20701D4180010BD03781B02E0
:10063000C022920013404178C901FF220A401343AF
:10064000817849001E220A401343C2789204802117
:10065000C9020A40134302791204C02189020A40E8
:1006600013430A4A536093685B035B0F08490824ED
:100670009C400C8093684B8043780B71138BDB0597
:10068000DB0F1B01D0E7C0460004004000400041E2
:100690000402002030B5304A1488538863438B42EB
:1006A0000BD2802292012D4BCB18934205D92C4CB2
:1006B00018232C4A8A18A2420ED82B4B5C68802241
:1006C000D20222435A602022FF321A831B7DDB07AD
:1006D00004D4254B5C600523180030BD452829D87B
:1006E0008300224AD3589F461F4B1B8BDB0503D543
:1006F0001D4B5C601023EFE7890849001A4BD96154
:1007000003E089084900184BD961FD2305001A3D13
:100710001D4013D0A5231B021843134B188019004A
:1007200001220B7D1342FCD0002D0FD00E4B5C60DC
:100730000023D1E70C4B5C601723CDE70A4B5968C7
:100740008022D2020A435A605B68E3E7064A536894
:1007500007490B405360E9E70402002000C07FFF17
:10076000FF1F00000000C0FF00400041BCF9000076
:10077000FFFFFBFFF8B52F4B1C885B886343834268
:1007800007D22D4E18252D4BC318B34206D801268B
:1007900000E00026631E1825184201D02800F8BD8D
:1007A000013D9442FAD3264B1B7D123DDB07F5D564
:1007B000244C234B1C801D0001242B7D2342FCD0A4
:1007C0002024FF341E4B1C83002A2CD0012305005B
:1007D0009D430023541EA44609E0CF187F783F02B2
:1007E0003C432C8002339BB202359A4204D9CC5C44
:1007F0006345F2DBA4B2F4E70E4B1B790025002B16
:10080000CCD13F2ACAD8002E06D1002201000420F4
:100810000D4B98470500C1E7002201001C200A4B40
:1008200098470500BAE7034B1B790025002BEAD057
:10083000B4E7C04604020020FF1F00000000C0FF14
:100840000040004144A5FFFF9506000070B51B4B1A
:100850001C885B886343834205D2194E1825194BC7
:10086000C318B34203D8631E1825184201D02800CC
:1008700070BD013D9442FAD3134B1B7D123DDB0743
:10088000F5D52024FF34104B1C83002A14D00123FB
:1008900098430023561E04E002339BB202309A4272
:1008A00008D90488A4B2CC54B342F5DACD18240A8E
:1008B0006C70F1E70025DAE70025D8E70402002094
:1008C000FF1F00000000C0FF0040004110B5224A99
:1008D000138852885A43824207D2204C182220495A
:1008E0004118A14207D8012400E000249B00013BED
:1008F0001822184201D0100010BD1A4B1B7D133A6C
:10090000DB07F8D5174B2022FF321A8380084000FE
:10091000D861002C1BD059688022D2020A435A6049
:100920005A68114A1A800F4901220B7D1342FCD0EC
:10093000002C04D00B4A53680C490B405360094B00
:100940001A8B1C200240501E82419200D3E7084AB5
:10095000044B1A80E7E7C04604020020FF1F000096
:100960000000C0FF004000411AA5FFFFFFFFFBFF92
:1009700002A5FFFF154B2022FF321A839B68590303
:10098000490F183AFF3A8A40027043801B0D838159
:100990000F4B1B885B065B0F072B10D00622D21A69
:1009A0000423934043600A4B1B8807221340072B04
:1009B00008D00722D21A0423934083607047002393
:1009C0004360F0E700238360F8E7C0460040004141
:1009D0000040800000B583B001AB80221A700A7815
:1009E0005A704A789A708A78DA701900014B9847E1
:1009F00003B000BD9124000003681869431E9841AC
:100A0000C0B2704770B5040006680422084B1A6033
:100A1000084D2000A8470028FBD133880222134349
:100A20003380044D2000A8470028FBD170BDC0468C
:100A300000E100E0F909000070B504000668042137
:100A400080230A4AD1500A4D2000A8470028FBD134
:100A5000084B3381B3813388022293433380044DA2
:100A60002000A8470028FBD170BDC04600E100E08F
:100A7000F9090000FF81FFFF70B5040006680A4B0A
:100A800098470023A386E386084D2000A847002846
:100A9000FBD13388012213433380044D2000A84743
:100AA0000028FBD170BDC046390A0000F9090000DA
:100AB000F8B504000E0007680C4D2000A847002878
:100AC000FBD12379002B09D01720012B05D1BE6162
:100AD000064D2000A8470028FBD1F8BD044B172085
:100AE0009E42FAD8B6B23E83F2E7C046F90900004A
:100AF000FFFF000070B504000668084D2000A847FD
:100B00000028FBD12379002B04D00020012B00D139
:100B1000B06970BD308B80B2FBE7C046F9090000B8
:100B2000F0B583B00400019115000668134F200052
:100B3000B8470028FBD12379002B0ED0012B19D107
:100B40001730012D17D80835AD00019BAB510B4D67
:100B50002000A8470028FBD10DE01720022D0AD85D
:100B6000074B019A9A4206D86B469B8810356D0058
:100B7000AB53ECE71A2003B0F0BDC046F909000002
:100B8000FFFF000070B50400150001601F4A5169A5
:100B900080235B000B43536105221D4B1A611D4BE3
:100BA0009847AB7823711C4B1C6022682B79DB03C0
:100BB00029880B439BB21380AB78002B13D01720EE
:100BC000012B0FD113889BB21380EB78002B03D03D
:100BD000138880210B431380A968002220000F4B4B
:100BE0009847002070BD138804210B431380EB78D5
:100BF0001720002BF6D10022A9682000074EB0472D
:100C0000E96801222000B0470020EBE70004004023
:100C100000100040790A0000E8070020210B0000C6
:100C20000A2A09D0072A07D90379002B10D0012BF3
:100C300012D11633092A09D8931C9B001950838EB0
:100C4000012191400B439BB283860023180070471B
:100C500017230A2AFAD8EFE71723F7E710B5026837
:100C60000A2911D0072912D980235B000C00083C07
:100C7000A340C024A40023405381C38E01228A4094
:100C800013439BB2C38610BD044B5381F5E7012487
:100C90008C40FF2323405381EFE7C0460080FFFFD5
:100CA00010B502680A2910D0072911D980235B00EA
:100CB0000C00083CA340C024A40023401381C38E31
:100CC00001228A409343C38610BD044B1381F6E78B
:100CD00001248C40FF2323401381F0E70080FFFFB5
:100CE000F8B5DE4657464E464546E0B52B4B1B68E9
:100CF0009A461E68DB8E5246928E1A409046B28902
:100D0000738913401AB2002A08DBFF271F402AD03C
:100D1000002401239946FE339B4614E043465B05BD
:100D200007D41F4BB3813CBC90469946A246AB46C4
:100D3000F8BD53461B6B9847F3E75B461D40B581F2
:100D40000134082CEFD023004D46A5402F42F4D0AB
:100D50004246224149461142EFD002339B0052469F
:100D60009B589847E9E7DA050AD54346DB0503D4E3
:100D700080235B00B381D6E753469B6A9847F7E729
:100D80009B05D0D543469B0503D480239B00B381AC
:100D9000C9E75346DB6A9847F7E7C046E8070020F3
:100DA0000080FFFFF0B5DE4657464E464546E0B5AB
:100DB00087B08046049116001F0000220023002106
:100DC0008B463F2401202100009601975C46039446
:100DD0004446059413E02024641A0500E540A84623
:100DE00014E0009C019D121BAB415C464D462C4318
:100DF000A346039C45462C430394013925D3202464
:100E000064420C19E7D40500A540A84604008C40B4
:100E1000A14692185B4114001D00059E4F463E40BE
:100E2000B446049E47463E40B246664657463E4359
:100E300003D00600264332002B00009C019D9D42FA
:100E4000DBD8CED19442D8D8CBE7039B58461900C3
:100E500007B03CBC90469946A246AB46F0BD10B5E3
:100E6000490840230024814202D2180010BD1C0012
:100E7000091A631C9BB28842F9D94023FF2CF4D88D
:100E800014800023F1E70000F0B583B00F001600D6
:100E900008AA117804004C434022BC4202D9100039
:100EA00003B0F0BD002B14D1020008000021194C42
:100EB000A04701003A0000230020174CA047002261
:100EC0000123121A8B41120C1B041A433280002298
:100ED000E5E70022012BF9D10A00002300210D4C87
:100EE000A04702000B0000920193380000210A4C39
:100EF000A047050080239B0140229842CFD8790F5C
:100F0000F800009A019BA047EA00821AD2B252036D
:100F10002A43DBE759C10000A50D000010B582B0DF
:100F200004000E4B1B78002B07D0002905D10B4B7A
:100F30005B78834210D01D200CE001A90C701120B9
:100F4000074B98471120074B9847044B5C700122D0
:100F50001A70002002B010BD0020FBE70C02002038
:100F600095230000252300003C4B984232D00AD93B
:100F70003B4B98424ED03B4B984255D03A4B98420F
:100F800038D0002070478423DB0598420CD0374BC3
:100F90009842F6D1012917D0002957D0022915D03F
:100FA000032915D00020EDE7012907D000294BD0F7
:100FB000022905D0032905D00020E3E72C48E1E70A
:100FC0002C48DFE72C48DDE72C48DBE72C48D9E745
:100FD0002C48D7E7012907D0002939D0022905D0AC
:100FE000032905D00020CDE72748CBE72748C9E7EC
:100FF0002748C7E7012907D000292BD0022905D0AF
:10100000032905D00020BDE72248BBE72248B9E705
:101010002248B7E7022903D0032903D00020B1E713
:101020001F48AFE71F48ADE7012907D0002913D0BB
:10103000022905D0032905D00020A3E71A48A1E71B
:101040001A489FE71A489DE71A489BE7032099E74B
:10105000194897E7194895E7194893E700080042AF
:101060000010004200040043000C00420004004253
:101070000300050003000600030007000300010051
:1010800003001E0003001F000300090003000A0004
:1010900003000B0003001100030012000300130003
:1010A00003000E0003000F000300170003001800E8
:1010B00003001900030004000300080003001000EF
:1010C0000300160030B587B00B4B6A4632CB32C2F4
:1010D00032CB32C2009B83420BD001239A00694677
:1010E0005258824206D00133062BF7D1002007B0B8
:1010F00030BD0023D8B2FAE7D4FA000070470000F0
:10110000F0B50A4B1B78002B0CD1094F094E0A4D44
:101110000024DE515A1914600433182BF9D101222E
:10112000024B1A708000024BC150F0BD0E0200202D
:1011300010020020FD100000EC07002000B583B075
:1011400008236A46137001335370013393700133DF
:10115000D3700133137101335371034B98476B46BE
:10116000185603B000BDC046C510000010B5024BB4
:101170001B680020984710BD1002002010B5024BDC
:101180005B680120984710BD1002002010B5024B8B
:101190009B680220984710BD1002002010B5024B3A
:1011A000DB680320984710BD1002002010B5024BE9
:1011B0001B690420984710BD1002002010B5024B97
:1011C0005B690520984710BD10020020F0B5D64697
:1011D0004F464646C0B58AB006000F001400316085
:1011E0000B689B070AD40B680520DB0700D497E047
:1011F0000AB01CBC90469946A246F0BD936A05937E
:10120000D36A0693136B0793536B089300250AE088
:1012100038009A4B98470EE00F231840814530D193
:101220000135042D31D0E9B2AB0002AA0C2012180E
:10123000D0580028ECD0431CF2D001040B0C994686
:10124000000CC3B29C460023020605D463465B092A
:10125000DB018B4A904643441F22604602409818A7
:1012600040300078824680205146C907D6D55208C2
:101270009B1830331878C0B26346DB07CCD5000921
:10128000CCE7002333601C20B2E711207D4B984748
:1012900022780025012A26D06368A2681343E268F9
:1012A00013432B43227C617C002901D080210B4316
:1012B000A17C002902D0802189020A43E17C002917
:1012C00002D0802189000A43217D002902D080219B
:1012D00089010A433968022003438B4217D0002357
:1012E00033601C2084E704AA0100A069664B98477C
:1012F00003001720002B00D07AE73B7BDBB204AA67
:10130000127805309A4200D072E70C35C4E77B684A
:101310009342E4D123787371237CB371002067E793
:1013200008005A4B9847052800D19FE0030012336C
:101330005749CD69012282402A43CA6109A924255F
:10134000625D0A70DBB201931800524B9847019816
:10135000514B9847605D0021504B98472378012BF3
:1013600019D03368984604AB80221A7000225A7054
:1013700001219970DA702378002B01D104AB9A70A7
:10138000A36A0593E36A0693236B0793636B089341
:10139000002705AD11E03B680C2213433B60E0E7FA
:1013A0004046364B98470DE004A90870000CC0B2C7
:1013B0003B4B98470137042F07D0F9B2BB0058596F
:1013C0000028EDD0431CEFD1F4E723787371237C20
:1013D000B371A37CF371237D3372002202ABDA80F8
:1013E0002378012B2AD06368A2681343E268134371
:1013F000217C627C002A03D12A4A9278920701D587
:1014000080221343A27C002A02D080229202114340
:10141000E27C002A02D0802292001143227D002A21
:1014200002D0802292011143424612681343424681
:10143000136053680B4353600020D9E63068134BA8
:1014400098471230C0B20F4B9847010002AB9A1D6B
:10145000A0690D4B984703001720002B00D0C7E66A
:1014600002AB06331B7842461373BCE7084A136A83
:1014700002210B431362182360E7C046690F000086
:1014800000280040B92300005F0E0000C5100000D6
:101490000004004095230000252300001D0F0000DC
:1014A000912400000020004110B544791523012C3F
:1014B00001D0180010BD047A0023002CF9D1002AB5
:1014C00058D04B78002B44D003681B7EDB0710D428
:1014D0000A78D1090023002904D15309DB012E49E0
:1014E0008C4663441F21114001228A409A610523E2
:1014F000DFE70A78D4090023002C04D15309DB016B
:10150000254CA44663441F2414400122A2405A6182
:1015100003681A7ED20701D58A789A62C2790023BD
:10152000002AC6D102680421137E0B42FCD0117E32
:1015300000234907BDD5538B5B0701D50423538393
:101540008379012B02D0936A0023B2E7936A0023C8
:10155000AFE70A78D1090023002904D15309DB0140
:101560000D498C4663441F21114001228A405A6173
:1015700000239EE70A78D1090023002904D15309EA
:10158000DB0105498C4663441F21114001228A403A
:101590009A6100238DE7C04600280040F0B5DE4682
:1015A00057464E464546E0B591B005000C00160082
:1015B00029600800C44B9847020005280DD0070099
:1015C0001237030021680520C90709D511B03CBCBA
:1015D00090469946A246AB46F0BD18270123F1E795
:1015E000216817308907F1D4052A49D0B749C8695D
:1015F00001229A4013000343CB610FA92D23984683
:10160000F35C0B70FFB23800B14B98473800B14B18
:1016100098474346F05C0021AF4B9847F37A6B71D3
:101620002423F35CAB712523F35CEB71F37E2B7207
:10163000337F6B722B6898461800A34B9847052898
:1016400026D0123000220E2306A98C4663441A804D
:10165000328A02928023DB019A4200D1A7E019D995
:10166000C023DB01029A9A4200D19BE080231B0237
:101670009A4200D023E1032306930023079312E04C
:101680009249086A043A9A40130003430B62B4E794
:101690001820D7E780239B019A4200D00FE1102346
:1016A00006930F3B079333680593F3689B46736972
:1016B0000393337E04932623F35C9A46736899461A
:1016C000002B00D19BE080235B05994504D12723A3
:1016D000F35C002B00D180E0737E002B02D0B37E40
:1016E000424693730E2306AA944663441B884246DF
:1016F0009381059B5A461343039A13434A46134367
:10170000029F1F43049B1B021F4353465B071F435B
:101710002723F35C002B01D104331F43737E9B020C
:10172000327F52021343727F120213432422B25CAF
:10173000520413432522B25C12041343B17AF27AA5
:10174000114319433389FF2B7DD080225204174364
:1017500019432C23F35C002B03D1604B9B789B0730
:1017600001D580231F432A68D369002BFCD143464F
:1017700059602A68D369002BFCD143461F600EAB29
:1017800080221A7000225A70DA709A70336B0A93B2
:10179000736B0B93B36B0C93F36B02930D93002756
:1017A0000AAE5EE008230693073B07937BE73368A6
:1017B0000593F3689B4673690393337E0493262352
:1017C000F35C9A4673689946002B14D080235B051E
:1017D000994500D17BE7002020E0336A1F00C0B2AA
:1017E0003F4B984701000E2206AB9C4662443800EE
:1017F0003C4B984712E008230693002307932723C6
:10180000F35C002B0ED0069B0093079B0E2206A9CB
:101810008C466244B16A306A334FB847002800D022
:10182000D4E659E7336A1F00C0B22D4B9847010038
:10183000069B0093079B0E2206A88446624438004C
:10184000294FB847EAE7F37E002B82D08023DB04E0
:101850001F437EE72000254B984707E00137042F00
:101860000DD0F9B2BB0098590028F3D0431CF5D035
:101870000EA90870000CC0B21D4B9847EEE700237C
:10188000EB602B616B61AB61EB612B62AB626B62F6
:101890000022EB85AB853033EA540133EA5401333F
:1018A000EA540133EA542868074B98470400114969
:1018B000114B9847A400114BE550002086E61023F9
:1018C000069300230793EEE6C510000000040040D5
:1018D00095230000252300001D0F0000002000417B
:1018E000B92300005F0E0000890E0000690F0000A0
:1018F00091240000E51A000001110000EC0700200F
:10190000C2791C23002A01D118007047C28D92B2FF
:10191000173B002AF8D1026811850221137E0B4281
:10192000FCD00023F0E782791C23002A01D11800A3
:101930007047828D92B2173B002AF8D10268107E60
:101940004007F4D5538BDBB298061DD0980703D51A
:10195000022353831833EAE7580703D5042353833C
:101960001A33E4E7D80703D5012353831233DEE7A4
:10197000D80603D5102353833233D8E79B0603D50B
:10198000202353832133D2E7138D0B800023CEE72E
:10199000F0B5CE46474680B583B0050001911720CB
:1019A000002A04D103B00CBC90469946F0BDEB79F7
:1019B0000530002BF6D02C68013A93B299460026E8
:1019C0000127204B984611E0731C9BB2019A915D50
:1019D0006A79012A17D089B21E0028001A4B98474D
:1019E0004B46013B9BB29946434513D0237E3B4275
:1019F000EAD1144B227E3A42E6D1012B19D0013BA9
:101A0000002BF7D1E0E70236B6B2019AD35C1B0295
:101A10001943E2E7237E9B070DD40A4B0221227E65
:101A20000A420AD1012B0AD0013B002BF7D100203A
:101A3000B8E71220B6E70020B4E70020B2E7122092
:101A4000B0E7C046FFFF000001190000F0B5D64620
:101A500000B584B0040001911720002A03D104B01E
:101A600004BC9246F0BDA3790530002BF7D0266860
:101A7000013A93B29A460025042719E0002302AAEE
:101A8000D380911D2000154B98470028E7D1691C91
:101A900089B202ABDB88019A53556279012A14D0CE
:101AA0000D005346013B9BB29A460D4B9A45D6D04A
:101AB000337E3B42E2D10A4B327E3A42DED1012BE9
:101AC00009D0013B002BF7D1D8E70235ADB21B0A94
:101AD000019A5354E5E71220C1E7C04627190000D8
:101AE000FFFF0000F8B58000624BC5582C68E36921
:101AF000002BFCD1237EA67D1E403023EB5C3122DF
:101B0000AF5C1F40F30722D5EB8D9BB2002B1CD09E
:101B1000AA6A1378DBB2511CA962697901290ED037
:101B20009BB2DB05DB0D2385EB8D013B9BB2EB8587
:101B3000002B0CD1013323750133A37507E05178D5
:101B400009020B430232AA62EBE701232375B307B4
:101B500006D50223237500223133EA54FB071AD439
:101B6000730765D5AB8D9BB2002B5FD0638BDBB267
:101B70001A0714D43F221340002B34D09A0711D5F2
:101B80001A223223EA54303B63837B0750D5280066
:101B90006B6998474CE02800EB689847E0E73722EC
:101BA0001340E9E75A0705D51E223223EA542E3B9B
:101BB0006383EAE7DA0705D513223223EA54313B7F
:101BC0006383E2E7DA0605D542223223EA54223B58
:101BD0006383DAE720221A42D7D021323223EA5433
:101BE000123B6383D1E7238DDB05DB0DDAB2696A33
:101BF0000A706A6A511C69626979012910D0AB8D3B
:101C0000013B9BB2AB85002B12D10433237500221C
:101C10002E33EA54BB070BD528002B69984707E001
:101C20001B0A53706B6A01336B62E8E70423237568
:101C3000F30604D5102323752376FB060ED4B306D2
:101C400004D52023237523763B070BD4330704D513
:101C5000082323752376BB0608D4F8BD2800EB695A
:101C60009847ECE72800AB699847EFE72B6A280014
:101C70009847F2E7EC07002010B5082803D8800049
:101C80001C4B1B589F46002032E01B4B18692FE06D
:101C90001A4B187D0007800F431C1948584327E052
:101CA000154B586924E0144B1B6800209B071FD577
:101CB000124980225200CB681342FCD00E4B1B68A5
:101CC0005B0701D40F4813E000200F4B98470A4BE5
:101CD0009B681B041B0C58430AE02823074AD35C6B
:101CE00000209B0704D5044BD86801E08020000247
:101CF00010BDC046ECFA000028020020000C004095
:101D000000093D00006CDC02B923000070B50B4CEB
:101D1000237D8578467802780321114089000C22C2
:101D200093430B430B3A3240920140218B431343C0
:101D3000ED017F2213402B43237570BD000C004042
:101D4000F0B5D6464F464646C0B5204B9A465B692D
:101D5000457801784C424C41A14681788C46C17847
:101D60008846467A077A847A406819494861012191
:101D70004846800004229343034340460840C00085
:101D80000432934303436046084000010832934302
:101D900003430F40BF01402083433B430E40F60105
:101DA000403083433343793805402D0209480340CE
:101DB0002B4321400903084803400B43524653611B
:101DC0001CBC90469946A246F0BDC046001000409B
:101DD00028020020FFF8FFFFFFEFFFFF10B5837A16
:101DE0009B061B0C82899205920D13431A494B6086
:101DF000037A427A13438288C48822431343427889
:101E0000D20113438278920113430B600378042BB1
:101E100011D0202B0ED1837B9B06428A1343028A6A
:101E200012040E490A4013430B4A936011680C4B8D
:101E30000B43136010BD837B9B06428A1343028AC7
:101E4000120406490A401343034A936013680421AD
:101E50000B431360EEE7C046280200200000FF039A
:101E600024040000082803D88000294B1B589F46F3
:101E700017204BE0274A137D02210B4313750020E6
:101E800044E0254A936902210B43936100203DE021
:101E9000204A138A02210B431382002036E01E4A97
:101EA000536902210B43536100202FE01B490B684B
:101EB000022213430B60174B1A831900FE32CB68C2
:101EC0001342FCD0154A9168124B19625268DA61CC
:101ED00000221A8319000132FF32CB681342FCD072
:101EE0000E4B1B689BB20B4A138300200EE009497E
:101EF00028228B5C022003438B5408003821263AA9
:101F0000435C1342FCD1002000E000207047C04633
:101F100010FB0000000C00400010004028020020D0
:101F2000082832D880001A4B1B589F46194A137D47
:101F300002218B43137500207047174A93690221D1
:101F40008B4393610020F7E7124A138A02218B43E7
:101F500013820020F0E7104A536902218B4353613A
:101F60000020E9E70D4B1A6802218A431A601B68BA
:101F70009BB2084A13830020DEE7064928228B5CC7
:101F8000022083438B540020D6E71720D4E7C046B5
:101F900034FB0000000C004000100040280200202C
:101FA00030B58DB0802252006C4B9A60FD3A6C4B7C
:101FB0009A606C4A53681E218B431A390B43536055
:101FC0008023DB059B78022B0FD08023DB059B78D9
:101FD0005BB2002B09DB8023DB0501229A71013201
:101FE0009A701A009379002BFCD009A80023037083
:101FF00080221202426083700122C27003728372D7
:10200000033242704372584B98470520574B98470C
:1020100057490122CB681A42FCD001A901254D6025
:1020200000244C700C724C7203230B700020514B37
:1020300098470620504B98476B465C701D709C700B
:1020400068464E4B98470620484B98474349102214
:10205000CB681A42FCD001A901234B6000244C70CC
:1020600005330B700C724C720020424B984704AB46
:1020700000229C80DC801A725A729A703F219981EA
:102080003B3919705A703E4B1B689B0E3F2B63D037
:1020900004A88372B723DB0043820723837338339A
:1020A0000382384B9847384B984701AC012502957D
:1020B00000236370637205332370257221000120B1
:1020C0002C4B98470120314B984725702100002068
:1020D0002F4B984700202F4B98470720234B9847BA
:1020E0001E49D0221201CB6813409342FBD12A4CE7
:1020F0000123A3716371237101A900234B700B723B
:102100004B7207330B70013B4B600020194B984713
:1021100000201E4B98470020204B98472179C9B2D8
:102120001F4B98471F4B984214D88023DB059B78A0
:10213000002B0FD08023DB059B785BB2002B09DBE3
:102140008023DB0501229A7100229A701A0093798C
:10215000002BFCD00DB030BD203B99E7000C0040B7
:102160000014004000400041411D0000651E0000B9
:1021700000100040CD210000211F00000D1D0000B7
:1021800020608000DD1D0000A921000079220000F0
:10219000952300002523000000040040B922000020
:1021A0003DBD0000001BB700064A536940210B43A8
:1021B00053610122044B1A7019000B781342FCD1B1
:1021C0007047C046000400400018004070B504008D
:1021D0000D784B78002B02D08023DB001D434B7A17
:1021E000002B02D080231B011D43486801280FD912
:1021F000431E184231D102282DD902230022013278
:102200005B009842FBD880235B011D4312041543F9
:102210000B7A002B02D080239B011D430426A6408D
:102220001149124A4B6813401E42FBD1104B98478C
:10223000A4000D4B9C466444226A80235B001A4034
:102240002A4322626146094A4B6813401E42FBD171
:10225000084B984770BD0022D5E7000480239B00FF
:1022600018430543D4E7C04600180040FC070000AF
:10227000AD010000ED01000010B504000422824011
:1022800009480A4943680B401A42FBD1084B98475A
:10229000A400054B9C466444226A80235B001343E0
:1022A0002362044B984710BD00180040FC07000053
:1022B000AD010000ED010000F8B5040004228240E9
:1022C0001248134943680B401A42FBD1114B9847FF
:1022D0000E4F0834A400E0590007000F0E4B98473A
:1022E0000600E559ED04ED0FE459240C0B4B98471B
:1022F000002D07D1012C07D921003000084B984749
:10230000060001E00134E6403000F8BD001800404E
:10231000FC070000AD010000791C0000ED01000089
:102320003DBD000010B50400094B9847A000094BC3
:102330009C4660448022835840210B4383504031A7
:10234000403A43581A42FCD0034B984710BDC04650
:10235000AD01000000180040ED01000010B50400C0
:10236000094B9847A000094B9C4660448022835843
:1023700040218B4383504031403A43581A42FCD1AC
:10238000034B984710BDC046AD0100000018004047
:10239000ED01000070B504000D00054B98472A7848
:1023A0000F2313402034A400024AA35070BDC0463E
:1023B0005D2300000018004010B50400064B98474C
:1023C0002034A400054BE4582407240F044B9847FD
:1023D0002000044B984710BDAD01000000180040DC
:1023E000ED010000B922000030B5D378002B35D1C3
:1023F0001378802B29D01B06802464022343547851
:102400000225AC4306D19478002C20D18024A4026C
:10241000234341605478013C012C1CD90D042D0C40
:10242000A024E4052C431C4384620D0CD024240614
:102430002C431C438462D478002C22D15B031CD52E
:102440009378012B1ED0416117E00023D7E7C02409
:10245000E4022343DDE70D4C2340DFE741600C0439
:10246000240CA023DB05234383620C0CD0231B0622
:1024700023438362D378002B03D15378013B012B94
:1024800002D930BD8161F8E78160FAE7FFFFFBFF09
:1024900010B50A00C1090023002904D14309DB015A
:1024A00005498C4663441F242040012181401800C7
:1024B000024B984710BDC04600280040E9230000A9
:1024C0007047000010B5054B9847054B9847054BE2
:1024D0009847054B9847054B984710BDA11F000032
:1024E0001D020000C12400000D050000C1240000F1
:1024F000931C9B001950022A09D0032A0CD00123F7
:1025000093401A00037E1343037600207047037E36
:10251000102213430376F8E7037E20221343037649
:10252000F3E7000070B58000164BC45823689D7A0D
:10253000227E637E13401D40EB0706D4AB070BD40D
:10254000EB0610D4AB0615D470BD2000A3689847E5
:10255000012322689372F1E72000E3689847022381
:1025600022689372ECE720002369984710232268C1
:102570009372E7E7200063699847236820229A72E4
:10258000E2E7C0460408002010B50020014B984740
:1025900010BDC0462525000010B50120014B98470D
:1025A00010BDC0462525000010B50220014B9847FC
:1025B00010BDC0462525000010B50320014B9847EB
:1025C00010BDC0462525000010B50420014B9847DA
:1025D00010BDC0462525000030B587B001A90C4BC1
:1025E0000A0032CB32C212CB12C2019B98420BD0EE
:1025F000012301A99A005258824206D00133052BCB
:10260000F8D1002007B030BD0023D8B2FAE7C046A9
:1026100080FB0000F0B5C64600B58EB004000D008A
:1026200016000800AE4B984780460CAB1B221A7070
:102630005A7001329A70DA7001321A7102A9A94BEC
:1026400014330A0083CB83C283CB83C283CB83C280
:102650001B6813600023A360E3602361636123763A
:10266000637643469A00A04BD45025603423F35C34
:10267000A376F378082B08D023712B680520DB079D
:1026800008D50EB004BC9046F0BD17204246D207D4
:10269000F7D4F1E7EB7A17309B07F2D42B689B074E
:1026A000EFD4337C002B12D1337F002B1BD1434658
:1026B0005A0002A9531C9B0058584346DB005B5844
:1026C000D9B2042923D88B008849CB589F4601A949
:1026D00001238B700022CA70327E0A704B70307DED
:1026E000834B9847E0E701A901238B700022CA7051
:1026F0002432B21812780A704B701F33F31818780E
:102700007B4B9847D3E77B494B6918434861F37883
:10271000082B00D186E033786A4613700CAB424632
:102720009F5C69463800744B98473800734B984754
:10273000F378F2791343B2881343727A002A02D0F5
:10274000802252021343B27A002A02D080229202DF
:102750001343F27A002A02D0802252031343327BC1
:10276000002A02D080229203134371788901B27843
:10277000D2011143194322681369002BFCD129604F
:1027800022681369002BFCD1B3792B73717B4B1E2C
:1027900099418900B37B002B01D0012319432268A2
:1027A0001369002BFCD1FF332B71002904D0226860
:1027B0001369002BFCD16971337A6B73226813693A
:1027C000002BFCD12379042B59D0082B74D017206F
:1027D000002B00D055E71369002BFCD1338DAB8261
:1027E00022681369002BFCD1738DAB8322681369B7
:1027F000002BFCD1B38DEB83002042E73D498B6970
:102800001843886183E73B49CB691843C8617EE779
:1028100038490B6A1843086279E7364B596A08430E
:10282000586274E743460133042B00DD73E702ABC3
:10283000D11C8900C95802329200D358DAB2042A56
:1028400000D968E793002E4AD3589F46294A536916
:10285000194351615FE7274A9369194391615AE728
:10286000244AD3691943D16155E7224A136A1943AF
:10287000116250E71F4B5A6A114359624BE71369C3
:10288000002BFCD12833F35C2B7522681369002BD5
:10289000FCD12933F35CEB7622681369002BFCD161
:1028A0002A33F35C2B7722681369002BFCD12B337E
:1028B000F35C6B770020E4E61369002BFCD1B36A6C
:1028C0006B6122681369002BFCD1F36AEB6122680B
:1028D0001369002BFCD1336B2B620020D1E6C0467C
:1028E000D925000080FB00000408002058FB0000F0
:1028F00091240000000400409523000025230000DF
:102900006CFB000002681369002BFCD11371016895
:102910000B69002BFCD18033537102681369002BC3
:10292000FCD10379042B05D0082B09D00020002B03
:1029300003D07047107DC0B2FBE7908A80B2F8E701
:102940005069F6E710B504682369002BFCD10379C0
:10295000042B06D0082B28D0002B13D017231800E7
:1029600010BD17230129FAD8837E002B05D0D2B2DF
:10297000611830310A700023F1E7D2B2641822776F
:102980000023ECE717230129E9D8837E002B05D02B
:1029900092B2183149000A530023E0E792B20C3199
:1029A00049006418A2800023D9E717230129D6D84B
:1029B000837E002B05D106318900641862600023F4
:1029C000CDE70C3189000A510023C8E7FEE700007B
:1029D00010B51A4A1A4B9A4211D01A00194B9A4252
:1029E0000DD2194A03339B1A9B0801339B00002226
:1029F000134812498C58845004329A42FAD1134A2F
:102A0000134B9A420AD2D34311495B1803218B43DB
:102A100004339B18002102C29342FCD10D4AFF21CE
:102A20000D4B8B4393600D4A53687F390B435360C2
:102A30000B4B98470B4B9847FEE7C046A808010090
:102A400000000020E001002004000020E001002040
:102A50001418002000ED00E00000000000400041DC
:102A6000D5E00000792E0000F0B5C64600B50C0098
:102A7000904600280FD1002A11DD8F18094E0A4D0B
:102A8000306821002B6898470134BC42F8D1404699
:102A900004BC9046F0BD01235B429846F7E78046B0
:102AA000F5E7C0462008002018080020F0B5C6460B
:102AB00000B50E0015000138022810D8002A11D0E8
:102AC00000240C4B98460C4F43461868315D3B6818
:102AD0009847002808DB0134A542F5D106E001241F
:102AE000644203E0140001E001246442200004BCBD
:102AF0009046F0BD200800201C0800200300064A74
:102B00001268002A04D0044A1068C3181360704782
:102B10000249014A1160F6E74002002018380020FF
:102B200001204042704780239B014B60002070478A
:102B3000012070470020704770B582B005000E007C
:102B400000226B46DA80064C6B46991D2800A04790
:102B50000028F9D16B4606331B88337002B070BD74
:102B60002719000070B505008CB2034E2100280023
:102B7000B0470028FAD170BD0119000010B582B02D
:102B80006B46DC1D012221000F48104B984772B69E
:102B9000BFF35F8F00220E4B1A700E4B1B7821780B
:102BA0000D4AD1547F2B0AD001330A4A13700122F7
:102BB000074B1A70BFF35F8F62B602B010BD0022E0
:102BC000044B1A70F3E7C046440200204D1A00007F
:102BD00008000020F902002078020020F0B591B032
:102BE0008023DB05009300230193FF2269460A81BD
:102BF00000228B72CB720124242168464454013197
:102C0000445401314354013143540A930531435430
:102C10000131435405930382C376027602774276EC
:102C200013238376427780235B0303932F4B0C930C
:102C30002F4B0D9301235B420E930F93E1235B0215
:102C400008932C4D2C4B1D602C4A2D4B1A602D4A9D
:102C50002D4B1A606A468421C90528002B4B9847E2
:102C60002B4F3B68986800212A4EB0473B68586854
:102C70000021B0472E683000274B98471F2318408B
:102C80008440264B1C602A68D369002BFCD1336832
:102C9000022213433360174B1B68DA69002AFCD108
:102CA0005968802252020A435A600121114AD171A7
:102CB000DA69002AFCD1DA69002AFCD1596880223D
:102CC00092020A435A6001210A4A9171DA69002A84
:102CD000FCD113490020134B984704228423DB05C1
:102CE0009A75FC320D4B1A6011B0F0BD0300040060
:102CF000030005004402002020080020652B00008E
:102D00001C080020392B0000180800209D15000029
:102D10001000002041E300003D11000000E100E050
:102D20007D2B00000111000070B5154D2C682000AE
:102D3000144B98471F2318401E3B834080221249A2
:102D40008B502A68D369002BFCD12368022293435D
:102D500023600B4B1B68DA69002AFCD15A680B49C7
:102D60000A405A600021064AD171DA69002AFCD172
:102D70005A6807490A405A600022014B9A7170BD97
:102D8000440200203D11000000E100E0FFFFFEFFD3
:102D9000FFFFFDFFF0B583B0060001916B469D88F3
:102DA000054C064F2A0031002000B8470028F9D111
:102DB000019803B0F0BDC046440200209119000004
:102DC00070B502001F4B1C781F4B1B789C4219D317
:102DD000E31A1E4803701D4B1878002831D043B207
:102DE000002B15DB031C884200D90B1CD8B200282D
:102DF00027D0154B1B78441EE4B201341419144D2E
:102E0000002614E020008038C31A10480370E2E75F
:102E10000D4B1C7080200D4B18704BB2002B01DB4A
:102E20000800E4E78020E4E73300944207D0E95C3F
:102E3000117001327F2BF7D00133DBB2F5E7024A84
:102E4000137070BDF9020020F8020020FA02002081
:102E50007802002000B583B001216B46D81D054BD8
:102E60009847002803DD6B46D87903B000BD0120E8
:102E70004042FAE7C12D000070B52F4B98472F4B09
:102E800098472F4B984701222E4B1A70BFF35F8F44
:102E900062B62D4B98472D4B1C78E4B22C482D4B35
:102EA0009847630630D4A30632D4E30634D46307CC
:102EB00036D4A30738D4E3073AD4274B9847274B97
:102EC00098472748274B9847274B9847274B9847C1
:102ED000274B9847274B9847274B9847274B9847AE
:102EE000274B9847274B9847274C2000274B98475C
:102EF0002000274B984781B22000264B9847264D4B
:102F0000264CA847A047FCE72548164B9847CAE738
:102F10002448144B9847C8E72348124B9847C6E704
:102F20002248104B9847C4E721480E4B9847C2E708
:102F300020480C4B9847C0E7C5240000150100004D
:102F40001D02000008000020DD2B000000080040EA
:102F5000BCFB0000C1E1000029450000594500000C
:102F60005CFC0000B5E20000194C00003D5B000075
:102F7000515800002D65000005500000755B0000F1
:102F8000996B0000ED2F0000240800206132000042
:102F900025E50000C9450000C92F0000A96B00000D
:102FA000D4FB0000ECFB0000FCFB00000CFC00006C
:102FB0002CFC00004CFC000010B5024B9847002090
:102FC00010BDC0460130000010B5054B9847431CAA
:102FD00005D0C0B2034B98471020034B984710BD53
:102FE000552E000005460000156C000010B5024B80
:102FF0009847024B984710BD7D450000B132000054
:10300000F0B5DE4657464E464546E0B58BB0874B99
:103010001B789846864B1B680193864C864D01E0D1
:10302000C0B2A847A047431CFAD1844B844AD35C62
:10303000002B4FD0834BD35C0133DBB29A46002B7D
:1030400046D000239B4691467F4F4646D846D346FE
:103050001AE05646A64200D8E1E0009B5B68039365
:10306000002B3ED02401019B9C466444434601331F
:10307000DBB298465B46013BDBB29B46267B63682E
:1030800001935B46002B23D0704B0993002E00D197
:10309000C3E0019D0024434602931D33FF335B00D0
:1030A0004B440233B2461E000095318849442868DB
:1030B000B8470028CDD00134E4B210355445F3D1DF
:1030C000624C2000624B984781B22000614B9847C8
:1030D000614B98470BB03CBC90469946A246AB4624
:1030E000F0BDC346009B9C68002C00D199E05A7B40
:1030F000544B5349CB5C02995B1A934201D0534C19
:10310000DFE7002A15D043460133DBB24C4E3500D1
:103110004C48591CC9B21133FF335B00F318DB88EC
:103120009BB2002B00D17EE02A5CD2B20B00914210
:10313000EFD91822002104A8484B98475A465B460D
:103140000133092B57D9931C092B10D81133FF33A6
:103150005B003B49CB18DB889BB2002B07D0029B5E
:103160001F33FF335B00CB185B88C9180591D31C54
:10317000092B10D81133FF335B003149CB18DB88A2
:103180009BB2002B07D0029B2033FF335B00CB1890
:103190005B88C9180691131D092B10D81133FF3312
:1031A0005B002749CB18DB889BB2002B07D0029B22
:1031B0002133FF335B00CB185B88C91807910532B8
:1031C000092A11D81132FF3252001D4B9A18D388A8
:1031D0009BB2002B08D01A4A029B2233FF335B00BC
:1031E000D3185B88D218089204A8A047099C002C29
:1031F00000D066E76CE71133FF335B001049CB1852
:10320000DB889BB2002B9ED0029B1E33FF335B00FA
:10321000CB185B88C918049195E70C4C51E70B4C0F
:103220004FE70A4C4DE7094C4BE7C046CCFF000086
:103230000C000020552E0000054600004E02000044
:10324000780A00204F02000011E50000A4FC0000F5
:1032500025E50000C94500007D450000AFE1000004
:1032600070B504000C220D490D4DA8472026E672CA
:1032700020000C3010220B49A847E67620001C30B5
:103280000C220949A8472723E654200028300922A8
:103290000649A84700223123E25470BD70FC0000AB
:1032A0009DE100007CFC00008CFC000098FC00000C
:1032B00010B5064B984706491A20064B9847002838
:1032C00000D110BD0448054B9847FAE7C9760000C5
:1032D000613A0000CD740000FCFD0000B5E2000082
:1032E00010B582B004000A22002100680C4B9847F8
:1032F0000190012252420A2120680A4B984701237B
:10330000002805D19B00084A9B58636102B010BD9C
:1033100001A90120054B9847431E9841C3B2F1E72C
:1033200079E70000FD480000C4FE0000CD740000F5
:1033300030B583B0050001A90120054B9847054C25
:103340000A2201992000044B98476C6103B030BDFC
:10335000DD7300002408002081480000F0B5D64647
:103360004F464646C0B582B08046046820002A4BCE
:10337000984785B22000294B984700B26B46D88009
:103380000123022D26D8142824DC43461F683B78ED
:103390002B3BFD22134228D0214B98473B78C01885
:1033A00043785B0736D5012D2AD9012601241C4B11
:1033B0009A4604239946D0473B5DC01843784A4655
:1033C0001A4204D00134E4B2A6B2B542F3D80123C4
:1033D000B54218D09B00134A41469B584B6102B03E
:1033E0001CBC90469946A246F0BD012DDDD80C4B81
:1033F00098473B78C01843785B0701D40123E9E77D
:103400000123012DE6D16B46991D0420064B9847F8
:103410000023DFE70123DDE725E50000BDE0000034
:103420005DE10000C4FE0000CD74000070B582B004
:1034300006006B46DD1D29000420064B9847064C0C
:10344000002028560A222100044B9847746102B0DC
:1034500070BDC046DD730000240800204DE100006F
:10346000F0B5CE4600B584B08146036801930024D0
:10347000104F114EE5B2A300D9590198B04700286A
:103480000CD00134062CF5D1012080000B4B4A46AC
:10349000C358536104B004BC9146F0BD02ABD91DC2
:1034A000EB1D0B701630064B9847431E9841C0B277
:1034B000EBE7C0469CFE000041490000C4FE00004E
:1034C000CD74000030B583B005006B46DC1D2100D3
:1034D0001620054B98472378073B9B00034A9B58CF
:1034E0006B6103B030BDC046DD7300009CFE000080
:1034F00030B583B0040000680F4DA8476B461880B4
:103500006068A8476B465880A068A8476B4618714A
:10351000E068A847431E98416B46587169461D20D4
:10352000064B9847002803D0054B636103B030BDBC
:10353000044B6361FAE7C046BDE00000CD740000B3
:10354000A4FC00000CFE0000F0B5CE46474680B556
:1035500083B0050069461D201F4B9847002806D000
:103560001E4B6B6103B00CBC90469946F0BD6B4698
:1035700019881B4C0A2220001A4EB04720001A4B13
:1035800099469847FF273B00034020229046E2548B
:103590000130C1B209196B460220185E0A22134B92
:1035A00098472000C8473B0003404246E2546B4620
:1035B00019790130C0B200190A22B0472000C8476B
:1035C00007404346E3556B4659790130C0B20019B4
:1035D0000A22B0476C61C5E7DD730000A4FC00005F
:1035E000240800208148000025E500004DE100008E
:1035F000F0B5C64600B582B08046056800226B462D
:10360000DA710023114F124E6A46D41D9B00D9591E
:103610002800B047002807D023780133DBB223709D
:10362000012BF3D9012007E06B46D91D0930094B66
:103630009847431E9841C0B28000074B4246C3588A
:10364000536102B004BC9046F0BDC046BCFE000011
:1036500041490000CD740000C4FE000030B583B0C5
:1036600005006B46DC1D21000920044B9847237898
:103670009B00034A9B586B6103B030BDDD730000B3
:10368000BCFE000010B582B0040000680A4B9847E9
:103690006B46D8710123012805D99B00074A9B5826
:1036A000636102B010BD6B46D91D1420044B9847CE
:1036B000431E9841C3B2F0E7D1490000C4FE0000A8
:1036C000CD74000030B583B005006B46DC1D2100D1
:1036D0001420044B984723789B00034A9B586B6146
:1036E00003B030BDDD730000B4FE000010B582B041
:1036F000040000680A4B98476B46D87101230128E3
:1037000005D99B00074A9B58636102B010BD6B4608
:10371000D91D0820044B9847431E9841C3B2F0E7D7
:10372000D1490000C4FE0000CD74000030B583B064
:1037300005006B46DC1D21000820044B98472378C8
:103740009B00034A9B586B6103B030BDDD730000E2
:10375000B4FE000070B582B006006B469D1D2900C6
:103760001F20064B9847064C0023E85E0A222100E2
:10377000044B9847746102B070BDC046DD73000011
:10378000240800204DE10000F0B5CE4600B584B01D
:103790000500036801930024104F114EE3B29946CF
:1037A000A300D9590198B04700280BD00134032C4D
:1037B000F4D1012080000B4BC3586B6104B004BCF2
:1037C0009146F0BD02ABD91D4B4607330B70073055
:1037D000054B9847431E9841C0B2EBE780FE0000BE
:1037E00041490000C4FE0000CD74000030B583B034
:1037F00005006B46DC1D21000720054B9847237808
:10380000073B9B00034A9B586B6103B030BDC04629
:10381000DD73000080FE000010B582B00400006877
:103820000A4B98476B46D8710123012805D99B00A4
:10383000074A9B58636102B010BD6B46D91D062034
:10384000044B9847431E9841C3B2F0E7D1490000AA
:10385000C4FE0000CD74000030B583B005006B4697
:10386000DC1D21000620044B984723789B00034A67
:103870009B586B6103B030BDDD730000B4FE0000E7
:1038800010B582B0040000680D4B98476B46D88095
:103890000C4A052120680C4B98470123002805D1CC
:1038A0009B000A4A9B58636102B010BD6B46991D8C
:1038B0000320074B9847431E9841C3B2F0E7C04628
:1038C000C9E00000FFFF0000FD480000C4FE00004A
:1038D000CD74000030B583B005006B469C1D2100FF
:1038E0000320054B98472188044C0A222000044BF2
:1038F00098476C6103B030BDDD73000024080020E0
:103900008148000070B5050000680A4B9847040024
:10391000012807D0002809D00124A400064BE35851
:103920006B6170BD054B98470024F6E7044B984740
:10393000F3E7C046D1490000C4FE0000C184000086
:103940003985000000B583B00B4B1B886A461370A5
:103950000A4B019368460A4B9847002805D0023865
:10396000431E9841023003B000BD064A138801335C
:1039700013800020F7E7C04602030020240800203F
:10398000FD7D0000FE02002070B5050000681D4BA3
:10399000984784B262081C4B1A80FF235B009C424C
:1039A00008D91A4968681A4B9847002813D1194B4F
:1039B0006B6170BD2868184B98470028F1D0174AF2
:1039C00029682000164B9847E307EAD50E4A13886A
:1039D00001331380E5E76868124B984780B20B4BC0
:1039E0001880002808D101221A800F4B98478000C8
:1039F0000E4BC3586B61DCE70D4B9842F5D9054B74
:103A00006B61D6E725E500000203002000030020DB
:103A100021480000A4FC00008D470000240800207D
:103A2000714A0000BDE0000045390000C4FE0000FE
:103A30001027000000B583B001A800230370064BD7
:103A40001B684380054B9847002802D0032003B031
:103A500000BD0020FBE7C046380A00208187000037
:103A6000F0B583B0202800D9A6E08000544B1B5845
:103A70009F460B78002B25D0072B2CD0514B1B8851
:103A8000514A12889A4202D2504A93422CD9504C41
:103A9000504D2A880192504E328800924F4A3C2164
:103AA00020004F4FB8470023474A138033802B80B4
:103AB000444A138020004B4B984781B220004A4B68
:103AC000984777E00B214948474B9847424A13886B
:103AD00001331380D2E70D214548434B98473D4AB7
:103AE000138801331380C9E7424B984762E0364B95
:103AF0001A88344B1B889A420BD20B78002B59D171
:103B00000A213D48384B98473C4A138801331380BB
:103B100050E03A4D2B882E4C394A14212000304E6B
:103B2000B04700232B8020002E4B984781B2200005
:103B30002D4B98473EE04C680D7A002D24D0002C88
:103B40002FD0304E092230493000304B984730009A
:103B5000244B9847FF2303402022F2540130C0B287
:103B600082192B4B1B1A5B08AB4200D92B00D8B231
:103B70002100284B9847234C20001A4B984781B2CC
:103B80002000194B984705E0002C0AD00A211A485A
:103B9000154B9847204B1B68002B0BD11F4B9847A8
:103BA00008E00A211448104B9847F3E70D211C4800
:103BB0000D4B984703B0F0BD1A481B4B9847F9E7E7
:103BC000B4FC000000030020FE02002010270000CB
:103BD0003C0A0020FC0200200403002054FD0000E9
:103BE000ADE4000025E50000C945000038FD0000F7
:103BF00044FD00004539000080FD00000603002060
:103C00008CFD000024080020C8FD00009DE100009C
:103C100012020000C1470000380A0020353A0000B7
:103C20009CFD0000ACFD0000B5E2000010B50400F2
:103C30000A2200210068094B9847094B1860094A7D
:103C400005212068084B9847002800D110BD074B7C
:103C500098478000064BC3586361F7E779E7000097
:103C6000380A0020FFFF0000FD480000353A000040
:103C7000C4FE000010B582B0040001A80123037047
:103C8000054B9847431E984180008000034BC35862
:103C9000636102B010BDC04681870000C4FE000011
:103CA00010B582B0040000680C4B984701900C4A94
:103CB000062120680B4B98470123002805D19B0063
:103CC000094A9B58636102B010BD01A90220074B4D
:103CD0009847431E9841C3B2F1E7C046C9E00000CF
:103CE000400D0300FD480000C4FE0000CD7400003C
:103CF00030B583B0050001A90220054B9847054C5B
:103D00000A2201992000044B98476C6103B030BD32
:103D1000DD7300002408002081480000F0B5C6468D
:103D200000B584B00500036801930024104F114EC4
:103D3000E3B29846A300D9590198B04700280BD0A8
:103D40000134042CF4D1012080000B4BC3586B616B
:103D500004B004BC9046F0BD02ABD91D434601330C
:103D60000B700B30054B9847431E9841C0B2EBE7F0
:103D70008CFE000041490000C4FE0000CD7400002C
:103D800030B583B005006B46DC1D21000B20054BD0
:103D900098472378013B9B00034A9B586B6103B013
:103DA00030BDC046DD7300008CFE0000F0B5C64695
:103DB00000B582B08046056800226B46DA710023A8
:103DC000114F124E6A46D41D9B00D9592800B047A6
:103DD000002807D023780133DBB22370032BF3D9FB
:103DE000012007E06B46D91D0F30094B9847431E51
:103DF0009841C0B28000074B4246C358536102B09D
:103E000004BC9046F0BDC04670FE00004149000071
:103E1000CD740000C4FE000030B583B005006B46D1
:103E2000DC1D21000F20044B984723789B00034A98
:103E30009B586B6103B030BDDD73000070FE000065
:103E4000F0B5C64600B582B08046056800226B46D4
:103E5000DA710023124F134E6A46D41D9B00D959C4
:103E60002800B047002807D023780133DBB2237045
:103E7000162BF3D901200AE06B46D91D0B780133CC
:103E80000B701130084B9847431E9841C0B2800018
:103E9000064B4246C358536102B004BC9046F0BD85
:103EA00014FE000041490000CD740000C4FE000073
:103EB00030B583B005006B46DC1D21001120044B9A
:103EC000984723789B00034A9B586B6103B030BD31
:103ED000DD73000014FE0000F0B5C64600B582B0E8
:103EE0008046056800226B46DA710023124F134E9C
:103EF0006A46D41D9B00D9592800B047002807D036
:103F000023780133DBB22370162BF3D901200AE0AA
:103F10006B46D91D0B7801330B701030084B984756
:103F2000431E9841C0B28000064B4246C3585361BD
:103F300002B004BC9046F0BD14FE000041490000F0
:103F4000CD740000C4FE000030B583B005006B46A0
:103F5000DC1D21001020044B984723789B00034A66
:103F60009B586B6103B030BDDD73000014FE000090
:103F700010B582B004000A22002100680C4B98475B
:103F80000190012252420A2120680A4B98470123DE
:103F9000002805D19B00084A9B58636102B010BD00
:103FA00001A90C20054B9847431E9841C3B2F1E785
:103FB00079E70000FD480000C4FE0000CD74000059
:103FC00030B583B0050001A90C20054B9847054C7E
:103FD0000A2201992000044B98476C6103B030BD60
:103FE000DD7300002408002081480000F8B50400BB
:103FF00000681B4B9847002802D11A4B6361F8BD3B
:104000006068174B98470028F7D0102200212068DD
:10401000154EB0470500102200216068B047060029
:104020002068124B9847022802D00E4B6361E6E7E6
:1040300060680E4B98470228F7D13306F5D4EDB2ED
:10404000F6B2B542F1D20A4C0A4F2800A04702004E
:1040500029000948B8470135EDB2AE42F5D2CEE7A6
:104060008D470000A4FC000079E7000025E5000072
:104070007D4E0000C1E10000D4FD000010B582B00B
:1040800004000A22002100680D4B984701900D4A58
:10409000062120680C4B98470123002802D0019A82
:1040A000002A05D19B00094A9B58636102B010BDEC
:1040B00001A90D20064B9847431E9841C3B2F1E772
:1040C00079E70000E0930400FD480000C4FE000012
:1040D000CD74000030B583B0050001A90D20054B5B
:1040E0009847054C0A2201992000044B98476C61BF
:1040F00003B030BDDD7300002408002081480000BB
:1041000070B582B006006B46DD1D29000E20064BFF
:104110009847064C002028560A222100044B984755
:10412000746102B070BDC046DD7300002408002039
:104130004DE1000070B584B005006B469C1D210068
:104140000920104B98472378002B0CD002A900209F
:104150000C4B98470C4A02A901200C4B98470A4B7C
:104160006B6104B070BD6B46DC1D21001320054E51
:10417000B04702A91220B0472078034A02A9034B96
:104180009847ECE7DD73000024080020C1470000D9
:1041900070B582B005000068274B984784B262086A
:1041A0006B46DA806B465E1D31000920234B984731
:1041B0003278002A23D10123102C25D82868204BDF
:1041C0009847012300281FD01E4A296820001E4B53
:1041D0009847E30704D56B469A1DDB8801331380AB
:1041E0006B4605331B78012B14D06B46991D1320A9
:1041F000164CA04713491220A047002304E00123D6
:10420000012A01D1022C0BD09B00114A9B586B61F3
:1042100002B070BD0B4900200C4B98470023F3E718
:104220002868074B984701230028EDD0054A2968E4
:104230000220054B9847D3E725E50000DD73000019
:104240008D47000024080020714A0000CD74000052
:10425000C4FE0000F8B504000068214B9847012314
:10426000002804D19B001F4A9B586361F8BD606819
:104270001B4B984701230028F4D01022002120680E
:10428000194DA8470600102200216068A8470500C4
:1042900027683800154B984701230228E2D1F6B26F
:1042A000002E06D139001248124B984701230028EE
:1042B000D8D1676838000D4B984701230228D1D127
:1042C000EDB2002D06D1390009480A4B9847012369
:1042D0000028C7D129003000074B98470023C1E7C9
:1042E0008D470000C4FE000079E7000025E50000CE
:1042F00010FE000011E50000554E000070B50400EE
:104300000068154B9847002802D1144B636170BDBB
:10431000102200212068124B9847050026683000C3
:10432000104B9847022802D00C4B6361EFE7EDB2C7
:10433000002D05D131000C480C4B98470028F3D1D3
:1043400028000B4B984701000A4D102228000A4B09
:1043500098476561DBE7C0468D470000A4FC00007C
:1043600079E7000025E5000010FE000011E50000DF
:104370007D4E0000240800208148000010B5040094
:10438000044B9847044B984721000448044B984736
:1043900010BDC046D14D0000DD2B00001C04010003
:1043A000C1E1000010B5094B9847094B1B78002B61
:1043B00000D110BD074B9847074B98470748084B5B
:1043C00098470022024B1A70F3E7C046E550000000
:1043D00008030020D14D0000DD2B0000080401007F
:1043E000C1E1000070B50500024C2000024B984767
:1043F0006C6170BD2408002061320000BFF34F8F54
:10440000034A044BDA60BFF34F8FC046FDE7C04656
:104410000400FA0500ED00E010B5054B9847BFF326
:104420004F8F044A044BDA60BFF34F8FC046FDE75D
:10443000F15B00000400FA0500ED00E030B585B046
:10444000040001AB00220192FF21197103920A328C
:1044500000214068234B9847050023492068234BDF
:104460009847002809D022492068204B9847002807
:1044700036D0204B636105B030BD00221E491F4B72
:10448000EB188B42F5D801951D4B039313005A1E70
:104490009341013301AA137101221A4B1A701A4B6E
:1044A00098470128E7D100236A46137001335370FF
:1044B000937069460330154DA84769460520A84703
:1044C000134B9847134B984701A8134B9847002864
:1044D000D1D1124B9847124B9847124B6361CAE7F0
:1044E0000122CBE779E70000F80301004149000011
:1044F00000040100A4FC0000C8BBCE0718FCFFFFAD
:104500007D43000008030020E17D0000D509000084
:10451000292D0000F54D000069510000D14D00002B
:10452000DD2B0000B0FF000010B584B001AC20000E
:10453000074B98471C230193002363600233E37207
:10454000013BA37221000820024B984704B010BD24
:104550006D0500008105000010B500220821044807
:10456000044B984700210820034B984710BDC046D4
:10457000A54300002D0400005904000070B50B4C49
:1045800000230B4AA3540B4AA3540132A3520A4AF4
:10459000A3520A4BE01814220021094DA847094BE9
:1045A000E01814220021A84770BDC046780A0020F8
:1045B0004E0200004F0200005202000026020000DE
:1045C000AFE100003A02000070B505000C1E0FD0EC
:1045D0000A4E07E0FF212800B047FF3CA4B2FF3598
:1045E000002C05D0FF2CF5D8E1B22800034B9847EA
:1045F00002210348014B984770BDC046952D00002D
:104600003004010070B5082847D094239B00584A15
:10461000D35A9BB289229200934200D9A1E020286C
:1046200000D173E0524B942189005A5A92B2541C23
:10463000A4B25C5298544F481A5A013292B21A529C
:104640005B5A9BB2012B59D9494A535A023BD35C5E
:104650000D2B53D1535A013BD35C0A2B4ED113007F
:104660000C00525A023A00219954434D5A5D195A8E
:10467000023989B21132FF3252009A18D1805A5D44
:10468000195B185A091A89B21D32FF3252009A1862
:1046900051800121394A995430E094239B00344AD7
:1046A000D35A9BB2002B29D094239B00D35A013BB1
:1046B000D35C002B23D113002F49525C013AD2B2B4
:1046C0005A545A5C1132FF3252009A18D28892B270
:1046D00028481A525A5C1132FF3252009A180020B0
:1046E000D0805A5C1D32FF3252009B1858802049FE
:1046F000942292008B5A013B9BB28B5270BD1C4995
:104700001C4A8B5A013B9BB28B52F0E71A4B184A5A
:10471000D35CDBB2082B24D8130094218900525AB1
:1047200092B2501C80B2585200259D5412481A5C17
:10473000104C1E5BB6B21132FF3252009A18D6806E
:104740001A5C595A1E5B0139891B89B21D32FF322E
:1047500052009A1851801A5C0132D2B21A541D5379
:10476000CCE7074B984703210648074B9847C5E716
:10477000780A0020520200004F0200004E020000A2
:104780007D450000B0FF0000C945000070B503780A
:10479000002B0ED00400094E4425B0472378C018E2
:1047A00043781D4207D001342378002BF5D1012036
:1047B00002E0012000E0002070BDC0465DE1000085
:1047C000F0B5CE46474680B583B0804601920028BA
:1047D00019D00C001500471EFFB20137CF190F4E3C
:1047E0003023994603E001340235BC420BD02078D7
:1047F00010222900B04723780F2BF4D82B786B7048
:104800004B462B70EFE743465B0000220199CA54E8
:1048100003B00CBC90469946F0BDC0464DE1000087
:10482000F0B583B004000191114B984706002000B9
:10483000104B98470700B6B2052E15D80E4B98427C
:1048400012D82378002B0BD00C4D0426A8472378D0
:10485000C01843781E4207D001342378002BF5D1CD
:10486000019B1F80012000E0002003B0F0BDC04686
:1048700025E50000BDE00000FFFF00005DE1000055
:10488000F0B5D64600B58EB003900C00019200251D
:10489000184B9A4605AF184E09E03731E955019992
:1048A0002000B04704006B1C002809D01D000295B1
:1048B00001992000D0470929EFDC3031E955EEE7B6
:1048C000029B002B14DB05AB5B19039A04A9C81CDF
:1048D00019781170013B01328342F9D1029E0136F1
:1048E0000023039A935510000EB004BC9246F0BD0D
:1048F0000026F5E749BE00003DBD000070B584B05C
:10490000050016000A2200210A4B984704000A22DB
:10491000010001A8084B984701A92800074B9847B8
:1049200003000020B44201D904B070BD5842584180
:10493000C0B2F9E779E700008148000011E5000006
:10494000F0B5DE4657464E46C0B582B004000E00B4
:10495000002806D0002909D01C4B9B4603279A4605
:1049600011E000292FD00878404226E0007824E0AA
:10497000203501950FE0D3B2994519D12378002B4A
:1049800016D0013401362578D847401943783B408A
:104990000195012BECD06B461B7999463578D047B1
:1049A000401943783B402A00012BE4D12032E2E752
:1049B000FF20019F07401040381A02B01CBC9146EE
:1049C0009A46A346F0BD0020F7E7C0465DE100002F
:1049D00010B504000849094B98470023002801D16D
:1049E000180010BD06492000044B98470300581ECC
:1049F00083410133F4E7C04678FF000041490000DD
:104A00007CFF0000F8B5CE46474680B50700164B40
:104A1000984701380026072821D8041E1CDB0125F1
:104A2000124B9946442398460AE01A00303A402B2C
:104A300001D9373B1A006A43B6182D01013C0ED448
:104A4000C8473B5DC01842784146114206D0602BF2
:104A5000EBD9573B1A00EEE7002600E004263000B1
:104A60000CBC90469946F8BD25E500005DE10000CC
:104A7000F0B5DE4657464E464546E0B583B00400E5
:104A80000F00904608001F4B984783B25D08DA0775
:104A900001D4013DADB20020A34206D003B03CBC1E
:104AA00090469946A246AB46F0BD002C27D001AEF9
:104AB00000239A46144B994613E0302333703B1978
:104AC000013B1B787370013CA4B25346B370AB46F4
:104AD000C3443000C8475B461870013DADB2002C9E
:104AE0000BD0012CE9D93B199A1E12783270013B88
:104AF0001B787370023CA4B2E7E70120CEE70120E7
:104B0000CCE7C04625E50000054A0000134B1B68B2
:104B100001211A7E0A42FCD01A7ED20700D5986283
:104B200002211A7E0A42FCD004211A7E0A42FCD0DD
:104B30001A7E002052070AD55A8B520701D504224B
:104B40005A83064A9279012A03D0986AC0B2C0B249
:104B50007047986AC005C00DF9E7C04618030020E9
:104B600000B583B001A901234B7000228A700B703D
:104B70002F20024B984703B000BDC046D509000066
:104B800010B5054B1B68002B04D0044B9847024B13
:104B90001B68984710BDC04614030020E550000074
:104BA00010B5054B1B68002B04D0044B9847024BF3
:104BB0001B68984710BDC04610030020E550000058
:104BC00010B5054B1B68002B04D0044B9847024BD3
:104BD0001B68984710BDC0460C030020E55000003C
:104BE00010B5012202490348034B984710BDC04647
:104BF000CC0C002018030020A914000010B50022DE
:104C000002490348034B984710BDC046CC0C002016
:104C100018030020A9140000F0B5D6464F464646BA
:104C2000C0B590B001AC012666700025A570267055
:104C300021005220524FB84721003E20B8472100A2
:104C40003F20B84721002F20B8478022D2024D4B89
:104C50009A614D4B8022D2059A61802212069A6198
:104C6000802212029A61257021005320B84702ACBD
:104C70002000464B98473023029365602572E67208
:104C800021000020424B9A469847002200214148CB
:104C9000414B9946984700210020404B9846984741
:104CA0000B23029365602572E67221000B20D0472A
:104CB00000220B213A48C84700210B20C0470C2393
:104CC000029365602572E67221000C20D047002215
:104CD0000C213448C84700210C20C047324B98466D
:104CE0003F2342461370557095706670A57026700C
:104CF00021003F20B84743461A78D10900230029F4
:104D000004D15309DB0129498C4663441F2111401A
:104D1000012210008840986102AC227000230393A6
:104D2000049323746374A274E27423752332A3542E
:104D3000183A002108A81E4B98471E4BA3618023F8
:104D40005B02E3601C4BA36201235B42E3621B4BEB
:104D500023631B4B63631B4D22001B4928001B4B25
:104D600098472A68D369002BFCD1136802210B43B2
:104D7000136010B01CBC90469946A246F0BDC046D8
:104D8000D509000000290040802800406D05000082
:104D900081050000C14B00002D04000059040000F3
:104DA000A14B0000814B0000CC0C002000280040EB
:104DB000AFE1000080841E000500530005003E00A6
:104DC000050052001803002000100042CD11000021
:104DD000074B1A68D369002BFCD1136802210B43DF
:104DE0001360034B1A68D369002BFCD17047C0468F
:104DF00018030020064B1A68D369002BFCD18F33AF
:104E000013751376136802218B4313607047C046F5
:104E10001803002070B582B00A4CA0470A4D8026C6
:104E200036026E610120094B984701A900230B70DF
:104E300001224A708B702F20054B9847AE61A04726
:104E400002B070BD614B000080280040B1500000EE
:104E5000D509000070B504000D00054B984780206F
:104E60002043044CA0472800A047034B984770BD3F
:104E7000E14B00000D4B0000FD4B000010B504009D
:104E8000064B98477F202040054CA047FF20A047B5
:104E90000400044B9847200010BDC046E14B0000C1
:104EA0000D4B0000FD4B000070B504000E00150016
:104EB0000A4B984780202043094B9847002D0AD081
:104EC0003400013DEDB201357519054E2078B0472B
:104ED0000134AC42FAD1034B984770BDE14B00005E
:104EE0000D4B0000FD4B000070B504000E001500D6
:104EF0000A4B984720000A4B9847002D0BD03400EE
:104F0000013DEDB201357519054EFF20B047207007
:104F10000134AC42F9D1034B984770BDE14B00001E
:104F20000D4B0000FD4B0000022807D0042808D0DC
:104F3000012800D07047044B1960FBE7034B196050
:104F4000F8E7034B1960F5E70C030020100300207D
:104F50001403002001280AD0002908D002280AD111
:104F6000012908D180229201034B5A6103E080227B
:104F70009201014B9A61704700280040012801D03E
:104F8000002903D180229201014B5A617047C0462B
:104F900000280040022070470020704710B5802292
:104FA0009200034B9A610220024B984710BDC04605
:104FB000002800408101000080229200014B5A61CC
:104FC0007047C04600280040012802D002280CD0BB
:104FD000704704228023DB055A701A005378042B93
:104FE000FCD1BFF34F8F30BFF2E705228023DB05F2
:104FF0005A701A005378052BFCD1BFF34F8F30BF86
:10500000E6E7000010B584B001226B469A700023D9
:105010006946CB700A716A460B80013B0293039389
:10502000044C05492000054B98472000044B984745
:1050300004B010BDD00C002000200040850B000003
:10504000050A000010B50248024B984710BDC04643
:10505000D00C0020F50A000070B505000E000A4CC7
:1050600000212000094B9847082231002000084BFE
:105070009847002229002000064B9847082120006D
:10508000054B984770BDC046D00C0020B10A000007
:10509000210C0000210B00005D0C000010B5082160
:1050A0000148024B984710BDD00C0020A10C000015
:1050B00010B5002803D10120024B984710BD024BC8
:1050C0009847FBE7550100008101000010B5014B36
:1050D000984710BDAD01000010B5014B984710BDB9
:1050E000ED01000070B5164B1B78012B00D070BD90
:1050F0000022134B1A70134B9847134B98471349D0
:10510000134B9847134B984704000D00124B9847D8
:1051100020002900114B9847114B1B68002BE6D04B
:105120009E68002EE3D0FA2292000023200029007E
:105130000C4CA047B0470022094B1A60D7E7C04685
:10514000240300204550000035D10000D723F4414E
:10515000DDCA000019C200009D500000BD6A0000B9
:105160002803002019C1000070B5041E55D02C4B37
:105170001B780020002B00D070BD2A4B98470300FD
:105180000020002BF8D02368274A94466344274A1E
:105190009342F1D82379022B21D0012B25D0012570
:1051A0006D42204B984703000020002BE4D0204B99
:1051B000984728000A381F4B98471F491F4B9847AC
:1051C0001F4B98471F49204B98470122144B1A70D8
:1051D0001E4B1C6020791E4B98470120CCE71D4BCD
:1051E0009847431C17D00020C6E71A4B9847431C2A
:1051F0000BD0FA218900184B984703000A4A8118FE
:105200000A4A00209142B7D800E0144B25689D421D
:10521000C7D91D00C5E72568C3E70020ACE7C04635
:1052200024030020396C000018FCFFFFC8BBCE0728
:10523000896A000035D1000075130342DDCA000001
:10524000ADC10000E55000005950000028030020C7
:10525000C94F0000C56700003DBD0000B0BFCE07CC
:1052600070B5394C207963791B020343A07900049F
:105270000343E0790006184306220021334EB0476D
:10528000207963791B020343A07900040343E0798A
:105290000006184306222E492E4DA847207A637A2D
:1052A0001B020343A07A00040343E07A000618437C
:1052B00024220021B047207A637A1B020343A07A9C
:1052C00000040343E07A0006184324222249A84739
:1052D000207B637B1B020343A07B00040343E07B32
:1052E0000006184348220021B047207B637B1B0245
:1052F0000343A07B00040343E07B000618434822DD
:105300001649A8472000AF30FF300C221449A847A7
:105310002A23E356032B15DD03230B48FF252A24FC
:105320000279417909021143827912041143C27949
:1053300012060A4359008A1855700133DBB202572E
:105340009342EDDB70BDC0460C0D0020AFE10000C4
:10535000840401009DE1000058040100A404010040
:105360008C04010070B5364C207963791B0203432D
:10537000A07900040343E0790006184306220021C7
:10538000304EB047207963791B020343A0790004B3
:105390000343E0790006184306222B492B4DA8470A
:1053A000207A637A1B020343A07A00040343E07A65
:1053B0000006184324220021B047207A637A1B029A
:1053C0000343A07A00040343E07A00061843242232
:1053D0001F49A847207B637B1B020343A07B00047B
:1053E0000343E07B000618430C220021B047207BDA
:1053F000637B1B020343A07B00040343E07B0006A6
:1054000018430C221349A8472A23E356032B15DD22
:1054100003230B48FF252A2402794179090211430D
:10542000827912041143C27912060A4359008A187C
:1054300055700133DBB202579342EDDB70BDC046BD
:105440000C0D0020AFE100007C0401009DE1000094
:105450003404010098040100F8B5404C20796379C8
:105460001B020343A07900040343E07900061843BC
:10547000042200213A4EB047207A637A1B0203438C
:10548000A07A00040343E07A0006184318220021A2
:10549000B047207963791B020343A07900040343DA
:1054A000E0790006184304222E492F4DA847207AA0
:1054B000637A1B020343A07A00040343E07A0006E8
:1054C000184318222949A847207B637B1B0203430A
:1054D000A07B00040343E07B000618431822002150
:1054E000B047207B637B1B020343A07B0004034384
:1054F000E07B0006184318221D49A8472000AF3062
:10550000FF3004221B49A8472A23E356022B1FDD44
:10551000022302221149FF2700252A2608794C7907
:1055200024020443887900040443C8790006204318
:1055300054002018477058339B00CB185D729D7241
:10554000DD721D730132D2B2130088578242E5DB4F
:10555000FF213023014AD154F8BDC0460C0D002074
:10556000AFE10000040501009DE10000EC04010032
:105570000C05010008050100F0B5D6464F46464629
:10558000C0B5464C207963791B020343A07900041F
:105590000343E0790006184306220021404DA84746
:1055A000207A637A1B020343A07A00040343E07A63
:1055B0000006184324220021A847207963791B02A2
:1055C0000343A07900040343E07900061843062250
:1055D0003449354DA847207A637A1B020343A07AE9
:1055E00000040343E07A0006184324222F49A84709
:1055F0002A23E356032B48DD03210320274BFF26F4
:105600000025E12252009046B446993AFF3A92466C
:1056100042001C79A1465C7924024F4627439C79BD
:1056200024042743DC7924063C43A41866701C79C3
:10563000A1465C7924024F4627439C7924042743E2
:10564000DC7924063C43A5541C7AA1465C7A2402EA
:105650004F4627439C7A24042743DC7A24063C43A4
:105660001218920012195572424664469C545831E1
:10567000890059184D728D72CD720D730130C0B210
:10568000010052469A569042C2DBFF213023034A62
:10569000D1541CBC90469946A246F0BD0C0D00208A
:1056A000AFE10000480501009DE100002405010074
:1056B00010B50A233C2801D9180010BD8400024B04
:1056C000E35898470300F7E72C03002010B50A239E
:1056D0003C2801D9180010BD8200024BD3589847CE
:1056E0000300F7E71405002010B50A233C2801D970
:1056F000180010BD8200024BD35898470300F7E70B
:105700002004002010B500280ED005281AD0042847
:105710001ED0032822D00A2402280AD107212723D9
:10572000114AD154023C04E0012127230E4AD154EE
:10573000082427230C4AD056C1B2000E0B4B9847C1
:10574000200010BD01212723074AD1540824F0E787
:1057500001212723044AD1540824EAE70121272301
:10576000014AD1540824E4E70C0D00208D5B0000B1
:1057700070B50020144901240B794A7912021A43AA
:105780008B791B041A43CB791B0613431C5402303C
:105790009028F1D10C4C0022AC235B00E2540B4B5F
:1057A000E35C84229200A05C00021843C1B2000AAC
:1057B000074DA847074BE35C074AA05C000218436B
:1057C000C1B2000AA84770BD0C0D00200F020000F6
:1057D0008D5B00000D0200000E02000010B50028D5
:1057E0000AD001280BD005280CD004280DD002388F
:1057F00001280DD9082010BD074B9847FAE7074B41
:105800009847F7E7064B9847F4E7064B9847F1E7C8
:10581000054B9847EEE7C046615200006553000013
:1058200059540000795500007157000030B5531EDF
:10583000DBB2002A0BD00024C5182A78520022437C
:10584000CA542C78E409013BDBB2FF2BF4D130BD04
:1058500010B5024B9847002010BDC0463D5B0000CC
:1058600010B584B00400110010226846044B98471C
:1058700069462000034B9847002004B010BDC04685
:105880009DE10000615A000010B5014B984710BD22
:105890006158000000207047F0B5D6464F46464696
:1058A000C0B5A4B001900F00029103929A462CABB0
:1058B0001C8808AE102200213000644DA8478723C1
:1058C000F3731022002104A8A847019A390004A804
:1058D0005F4B984704AB1B787F2B2DD8102220A953
:1058E00004A85C4B984720AB1B787F2B34D8102240
:1058F0001CA920A8574B984723000F331D11AAB2AB
:105900009046002A38D0220738D14246013A120187
:1059100096B2514F1F40BE4254DA330010A920AA5C
:10592000981B80B25446E45C155C6C400C54013307
:105930009BB2BB42F4DB45E0102220A904A8454BF2
:105940009847002320AA08A9985C5D5C6840985499
:105950000133102BF8D1C6E710221CA920A83D4B1B
:10596000984700231CAA08A9985C5D5C684098547D
:105970000133102BF8D1BFE7012398460F232000F5
:10598000984300230F2214400CA90027802650447E
:1059900005E0944209D05F540133102B07D09AB22E
:1059A0009442F6D9C25C5A54F6E75E54F4E70023F9
:1059B00010A80CA91CAA5C5C9D5C6C401C540133B3
:1059C000102BF8D11022002118A8204B9847012352
:1059D0005B424344994600200027002B1ADD14AD9A
:1059E00018AC1E4E000100235044C25C195D4A40B1
:1059F0005A550133102BF8D1102229002000B0474E
:105A0000019A02992000124B98470137BFB2380023
:105A10004F45E7DB002314AC18A810A91A5C5D5CA5
:105A20006A401A550133102BF8D1019A029914A833
:105A3000074B9847102214A90398084B9847002059
:105A400024B01CBC90469946A246F0BDAFE10000D0
:105A5000615800002D580000F0FF0F009DE100008C
:105A6000F0B583B004000E002B4A01211170002311
:105A700053709170D3701371137228492848294BC1
:105A80009847002101AD284F70180023C25C5A5579
:105A90000133042BFAD1019BCB5104311029F3D1EE
:105AA0001F4D21492800214B98472A68137902216C
:105AB0000B431371002101AD1B4E60180023C25C23
:105AC0005A550133042BFAD1019B8B510431102913
:105AD000F3D1134D14492800154B98472D682B79A5
